:100000000C9434000C9449000C9449000C94490061
:100010000C9449000C9449000C9449000C9449003C
:100020000C9449000C9449000C9449000C9449002C
:100030000C9449000C9449000C9449000C9449001C
:100040000C9449000C9449000C9449000C9449000C
:100050000C9449000C9449000C9449000C944900FC
:100060000C9449000C94490011241FBECFEFD8E036
:10007000DEBFCDBF11E0A0E0B1E0E6E8F3E002C0F2
:1000800005900D92A630B107D9F70E9479010C9422
:10009000C1010C940000CF93DF9300D0CDB7DEB741
:1000A00047EB52E0849F9001859F300D949F300D67
:1000B00011241A82198289819A818217930728F064
:1000C0000F900F90DF91CF91089589819A810196C9
:1000D0009A838983F0CFEF92FF920F931F93CF9370
:1000E000DF9300D0CDB7DEB7F82EE92E8B011A8250
:1000F000198289819A818017910748F00F900F909B
:10010000DF91CF911F910F91FF90EF9008958F2D68
:100110009E2D0E944B0089819A8101969A83898342
:10012000E8CF0895E0910201F09103011382128259
:10013000118210820895CF93C82FE0910201F091AF
:10014000030180818111FDCFA0910001B0910101D7
:100150008C918111FDCF938383810E94EF00E09108
:100160000201F0910301C28382810E94EF00E091BD
:100170000201F091030183E6818381810E94EF00F7
:10018000E0910201F091030180818460808380818D
:100190000E94EF00E0910201F091030180818260F2
:1001A00080838081CF910C94EF00E0910201F09167
:1001B000030120812111FDCF93838283808181609F
:1001C000808381810895E0910401F091050186E02A
:1001D000828388E18183158287E684830895E09194
:1001E0000401F0910501908195FFFDCF868308956C
:1001F0000F931F93CF93DF938C01C0E0F801EC0FB6
:10020000F11DC7FDFA95D0818D2F0E94EF00CF5FC1
:10021000D111F4CFDF91CF911F910F910895CF921B
:10022000DF92EF92FF920F931F93CF93DF9300D053
:10023000CDB7DEB7482F8B012DB73EB73A83298360
:10024000EDB7FEB7E61BF70B0FB6F894FEBF0FBE77
:10025000EDBF2DB73EB72F5F3F4FFB018AE0E82E81
:10026000F12C1E161F06C4F07901C12CD12CC0162A
:10027000D106FCF029813A810FB6F8943EBF0FBE3B
:100280002DBF0F900F90DF91CF911F910F91FF9095
:10029000EF90DF90CF900895842FB7010E949901CD
:1002A000462F972F3197D901AE0FBF1F805D8C93DA
:1002B000D8CFF70181917F010E94EF00FFEFCF1AA5
:1002C000DF0AD5CFE0910401F09105018081082E6D
:1002D000000C990B892F881F8827881F90E00895AC
:1002E000E0910401F0910501808187FFFDCF8681B7
:1002F00008956AE570E08AE590E00E946B000E9434
:10030000E3000E94920061E688E090E00E949B007A
:100310008AE090E00E944B0088E090E00E94D500C7
:100320000E94EF0062E370E082E390E00E946B00C5
:10033000F3CF97FB072E16F4009407D077FD09D072
:100340000E94AD0107FC05D03EF4909581959F4F2A
:100350000895709561957F4F0895AA1BBB1B51E1CD
:1003600007C0AA1FBB1FA617B70710F0A61BB70B25
:10037000881F991F5A95A9F780959095BC01CD01CA
:060380000895F894FFCF80
:0603860037003F00C0003B
:00000001FF
